:100000000C943A000C94EF000C94EF000C94EF0069
:100010000C94EF000C94EF000C94EF000C94EF00A4
:100020000C94EF000C94EF000C94EF000C94EF0094
:100030000C94EF000C94EF000C94EF000C94EF0084
:100040000C94EF000C94EF000C94EF000C94EF0074
:100050000C94EF000C94EF000C94EF000C94EF0064
:100060000C94EF000C94EF00010001368001360182
:100070003C0001E211241FBECFEFD8E0DEBFCDBFB0
:10008000E8E6F0E040E017C0B591A59135912591E3
:10009000059107FD0CC095918591EF01F92FE82F8F
:1000A00005900D92A217B307D9F7FE0104C01D9267
:1000B000A217B307E1F7E437F40731F70E946400B1
:0800C0000C946200F894FFCFDC
:1000C80087E690E00E94CB00109201011092000197
:1000D80010920301109202010E94E7002091020190
:1000E80030910301F901EC5FFE4F80838A3091F073
:1000F80080910001909101010196909301018093F4
:1001080000012F5F3F4F30930301209302012233F8
:10011800310510F3109203011092020180E090E083
:10012800FC01EA5CFE4F80810E94DF0080910201A1
:100138009091030101969093030180930201863008
:10014800910570F310920301109202018091000151
:1001580090910101181619060CF0B6CF80E090E0D6
:10016800FC01EC5FFE4F80810E94DF00809102015C
:1001780090910301019690930301809302012091CD
:0E0188000001309101018217930754F39DCFBF
:100196009093C5008093C400E0ECF0E0808182601B
:1001A6008083E1ECF0E0808188618083E2ECF0E01E
:0801B6008081866080830895BA
:1001BE00E0ECF0E0908195FFFDCF8093C6000895AE
:1001CE00E0ECF0E080818823ECF78091C600089582
:0401DE000C9400007D
:0601E20048656C6C6F2003
:00000001FF
