:100000000C944A000C946C000C946C000C946C00E2
:100010000C946C000C946C000C946C000C946C00B0
:100020000C946C000C946C000C946C000C946C00A0
:100030000C946C000C946C000C946C000C946C0090
:100040000C946C000C946C000C946C000C946C0080
:100050000C946C000C946C000C946C000C946C0070
:100060000C946C000C946C000C946C000C946C0060
:100070000C946C000C946C000C946C000C946C0050
:100080000C946C000C946C000C946C000C946C0040
:100090000C946C0011241FBECFEFD0E1DEBFCDBFAA
:0C00A0000E9456000C945400F894FFCF0E
:1000AC00219A299A2FEF89E698E1215080409040BF
:1000BC00E1F700C0000029982FEF89E698E1215064
:0C00CC0080409040E1F700C00000EBCF46
:0400D8000C94000084
:00000001FF
