:100000000C9438000C94E3050C94E3050C94E30580
:100010000C94E3050C94E3050C94E3050C94E305C0
:100020000C94E3050C94E3050C94E3050C94E305B0
:100030000C94E3050C94E3050C94E3050C94E305A0
:100040000C94E3050C94E3050C94E3050C94E30590
:100050000C94E3050C94E3050C94E3050C94E30580
:100060000C94E3050C94E30501000115000BCA0094
:1000700011241FBECFEFD8E0DEBFCDBFE8E6F0E031
:1000800040E017C0B591A59135912591059107FDE7
:100090000CC095918591EF01F92FE82F05900D92F5
:1000A000A217B307D9F7FE0104C01D92A217B30728
:1000B000E1F7EF36F40731F70E94A5020C946000D7
:0400C000F894FFCFE2
:1000C400257320257525753A257525753A257525D9
:1000D4007500257525752F257525752F25752575AD
:1000E400004D6F6E00547565005765640054687563
:0D00F40000467269005361740053756E0080
:100102002F923F924F926F927F928F929F92AF92D5
:10011200BF92CF92DF92EF92FF920F931F93CF93F2
:10012200DF93CDB7DEB762970FB6F894DEBF0FBE8E
:10013200CDBF6C013A01862E7901FC01108617822F
:10014200848181FFE7C19E012F5F3F4F3D872C874E
:10015200C901A0E8888B998BAA8B9FE3992EF301A2
:10016200849187FC8081882309F4D0C1482D9301B2
:100172002F5F3F4F4F4F853219F03901842E0AC04D
:10018200F901849147FD808192E0690E711C811C06
:10019200853229F4B60190E00E94DB04E0CFB12C55
:1001A20000E010E01032A0F48B3269F030F48032BB
:1001B20059F0833269F410612CC08D3239F08033EA
:1001C20039F4116026C01260146023C0186021C087
:1001D20017FD29C090ED980F9A3078F416FF06C0EB
:1001E200AAE0BA9E900D1124B92E13C0EAE00E9F28
:1001F200900D1124092F10620CC08E3221F416FDCD
:1002020085C1106406C08C3611F4106802C08836AD
:1002120051F4F301849187FC8081FFEF6F1A7F0A0A
:100222008F0A8111BFCF982F9F7D9554933028F468
:1002320024E0E20EF11C99820FC0833631F083373D
:1002420091F0833509F063C027C0F701808189836B
:1002520097012E5F3F4F7901288839884A88AA245E
:10026200A394B12C17C0A7014D5F5F4F5F874E87E4
:10027200F70120803180428016FF03C04B2D50E0F1
:1002820002C04FEF5FEF842DB1010E9478055C013F
:10029200EE84FF841F7718C097012D5F3F4F3F8781
:1002A2002E87F70120803180428016FF03C04B2D3C
:1002B20050E002C04FEF5FEF842DB1010E9478053C
:1002C2005C011068EE84FF8413FD1DC0802F90E056
:1002D200A816B906C0F4B60180E290E00E94DB04E1
:1002E2000150F4CFF101849147FC8081FFEF2F1A76
:1002F2003F0A4F0AB60190E00E94DB04011101504F
:1003020021E0A21AB108A114B10461F7F5C0843644
:1003120011F0893671F5F70117FF08C0608171810C
:100322008281938197012C5F3F4F09C06081718167
:10033200072E000C880B990B97012E5F3F4F790116
:100342001F76312E97FF0AC0909580957095619522
:100352007F4F8F4F9F4F312F3068332E2AE030E08E
:10036200AE014F5F5F4F0E942F04482E4C85441A06
:100372004AC0853729F41F7EA12E2AE030E025C02D
:10038200512F597FA52E8F36C1F018F4883579F098
:10039200BDC0803719F0883721F0B8C0852F806141
:1003A200A82EA4FE0DC09A2D9460A92E09C014FF98
:1003B2000AC0A52FA660AA2E06C028E030E005C01C
:1003C20020E130E002C020E132E0F701A7FE08C0E0
:1003D2006081718182819381A7014C5F5F4F07C069
:1003E2006081718180E090E0A7014E5F5F4F7A01EA
:1003F200AE014F5F5F4F0E942F04482E5C85451A65
:100402008A2D8F77382E36FE0DC0932D9E7FA92E12
:100412004B1458F434FE0BC032FC09C0A32DAE7E3F
:10042200AA2E05C0142DA32C03C0142D01C01B2D10
:10043200A4FE0EC0FE01E40DF11D8081803321F483
:10044200EA2DE97EAE2E08C0A2FE05C01E5F04C0E2
:100452008A2D867809F01F5FA3FC11C0A0FE06C09A
:10046200101788F4040DB02EB11A0EC0101760F4E4
:10047200B60180E290E00E94DB041F5FF7CF101705
:1004820018F4011B02C0B42C00E0A4FE10C0B60197
:1004920080E390E00E94DB04A2FE17C0A1FC03C02F
:1004A20088E790E002C088E590E0B6010CC08A2D92
:1004B200867859F0A1FE02C08BE201C080E2A7FC5F
:1004C2008DE2B60190E00E94DB044B1438F4B601D1
:1004D20080E390E00E94DB04BA94F7CF4A94E1E013
:1004E200F0E0EC0FFD1FE40DF11D8081B60190E0FC
:1004F2000E94DB044110F2CF002309F430CEB60192
:1005020080E290E00E94DB040150F6CFF601878181
:10051200908502C08FEF9FEF62960FB6F894DEBF10
:100522000FBECDBFDF91CF911F910F91FF90EF9042
:10053200DF90CF90BF90AF909F908F907F906F9001
:080542004F903F902F900895A7
:10054A00CF93DF93CDB7DEB7C054D1090FB6F89475
:10055A00DEBF0FBECDBF0E943A050E94AE0585E1FF
:10056A00E0E0F1E0DE01119601900D928A95E1F743
:10057A0080E1FE017696DF01282F1D922A95E9F780
:10058A007096DF011D928A95E9F760E080E00E948B
:10059A008D0461E181E00E948D0461E182E00E94A4
:1005AA008D0463E083E00E948D0461E084E00E9490
:1005BA008D0464E085E00E948D0461E286E00E9479
:1005CA008D040F2EF7E04F2EF02DFE01F696FEAFAA
:1005DA00EDAF5E01F6E1AF0EB11C0F2EF6ED6F2EF8
:1005EA00F0E07F2EF0E08F2EF02D1E0126E2220E83
:1005FA00311CADADBEADE42D1D92EA95E9F7BE0101
:10060A006A5C7F4F80E00E94BA032EA98FA948AD89
:10061A003AAD932F9073E92EF12CF594E794F59463
:10062A00E794F594E794F594E7943F703FAF9BAD58
:10063A0094FBCC24C0F8D12C9F7021969FAF2197B0
:10064A009CAD592E56945694569456949F70992E52
:10065A00922F9F701F929F93207730E032952295B8
:10066A002F7023273F7023273F932F93982F9F7034
:10067A001F929F93807790E0929582958F70892739
:10068A009F7089279F938F93842F8F701F928F93C8
:10069A0042954F701F924F9389AD90E00197FC01EC
:1006AA00EE0FFF1FE80FF91F21E030E02C0F3D1F6E
:1006BA00E20FF31F82818F9381818F9380818F93C1
:1006CA0084EC90E0A0E0AF939F938F93BF92AF9298
:1006DA000E94170580E80E94DF058E890FB6F894FC
:1006EA00DEBF0FBECDBF882351F08E01095E1F4FBA
:1006FA000E94DB05D8018D918D018111F9CF1F92DE
:10070A009F921F925F921F922196BFAD2197BF932E
:10071A00C60199279F938F931F92EFADEF93FF2402
:10072A00FF92EF928F927F926F923F922F920E9446
:10073A00170580EC0E94DF058EA10FB6F894DEBF84
:10074A000FBECDBF882351F08E01095D1F4F0E9455
:10075A00DB05D8018D918D018111F9CFEFECF7E01E
:0A076A003197F1F700C0000044CF02
:100774000F931F93CF93DF9394EA9093BC00ECEB19
:10078400F0E090819923ECF79091B900987F98302C
:1007940009F053C090ED9093BB0094E89093BC0093
:1007A400ECEBF0E090819923ECF79091B900987FFD
:1007B400983109F044C08093BB0084E88093BC0066
:1007C400ECEBF0E080818823ECF78091B900887F1E
:1007D4008832B9F58B01695F7F4FECEBF0E054EAA6
:1007E400A9EBB0E02BEB30E041ED94E8508380813D
:1007F4008823ECF78C91887F803129F5E9014883BF
:10080400908380818823ECF78C91887F8034E9F48D
:10081400908380818823ECF7E9018881E80189933A
:100824008E018C91887F883591F46C177D07F1F6E1
:1008340084E98093BC0080E00BC081E009C082E0C1
:1008440007C083E005C084E003C085E001C086E002
:0A085400DF91CF911F910F910895DD
:10085E00FA01AA27283051F1203181F1E8946F93E3
:10086E006E7F6E5F7F4F8F4F9F4FAF4FB1E03ED089
:10087E00B4E03CD0670F781F891F9A1FA11D680F27
:10088E00791F8A1F911DA11D6A0F711D811D911D5A
:10089E00A11D20D009F468943F912AE0269F1124CF
:1008AE003019305D3193DEF6CF010895462F477033
:1008BE00405D4193B3E00FD0C9F7F6CF462F4F708E
:1008CE00405D4A3318F0495D31FD4052419302D0EC
:1008DE00A9F7EACFB4E0A695979587957795679592
:1008EE00BA95C9F700976105710508959B01AC0192
:1008FE000A2E06945795479537952795BA95C9F7B9
:0C090E00620F731F841F951FA01D089529
:10091A0094EA9093BC00ECEBF0E090819923ECF719
:10092A009091B900987F9830C9F590ED9093BB00EB
:10093A0094E89093BC00ECEBF0E090819923ECF7FB
:10094A009091B900987F983159F58093BB0084E85B
:10095A008093BC00ECEBF0E080818823ECF7809177
:10096A00B900887F8832F1F46093BB0084E88093F1
:10097A00BC00ECEBF0E080818823ECF78091B900B1
:10098A00887F883289F484E98093BC008FE19EE4F1
:10099A000197F1F700C0000080E0089581E0089512
:0C09AA0082E0089583E0089585E0089540
:1009B6000F931F93CF93DF93FB01248121FD03C087
:1009C6008FEF9FEF2CC022FF16C0478150852581EF
:1009D60036814217530744F4A081B1819D012F5FF0
:1009E6003F4F318320838C93278130852F5F3F4F84
:1009F6003087278314C08B01EC01FB010184F2854B
:100A0600E02D0995892BE1F6D80117968D919C91D9
:100A16001897019618969C938E931797CE01DF919F
:080A2600CF911F910F9108957B
:100A2E00AFE0B0E0EDE1F5E00C946A050E891F89A8
:100A3E0086E08D831A8309838FEF9FE79F838E83D2
:100A4E009E01255E3F4F488D598D6A8DCE010196D0
:100A5E000E948100E885F985E00FF11F10822F9624
:060A6E00E4E00C94A10578
:100A740084B1876084B980EF8AB985B1887F85B9EC
:100A84001BB883E00E94DF0582E00E94DF0588E254
:100A94000E94DF058CE00E94DF0581E00E94DF05F3
:100AA40080E80E94DF058FEC97E00197F1F700C022
:040AB40000000895A1
:100AB8002F923F924F925F926F927F928F929F9266
:100AC800AF92BF92CF92DF92EF92FF920F931F9354
:100AD800CF93DF93CDB7DEB7CA1BDB0B0FB6F89405
:080AE800DEBF0FBECDBF099473
:100AF000CF92DF92EF926B01E82EA82FCB01411528
:100B0000510531F48C199D09EF90DF90CF90089535
:100B1000FC012491A7FD20812223A1F30196A11DB0
:060B200041505109ECCF29
:100B26002A88398848885F846E847D848C849B8477
:100B3600AA84B984C884DF80EE80FD800C811B8185
:100B4600AA81B981CE0FD11D0FB6F894DEBF0FBEB4
:060B5600CDBFED01089582
:100B5C0087B1806387B988E08093B800E9EBF0E057
:100B6C00808181608083ECEBF0E080818460808305
:020B7C000895DA
:100B7E00299A8FEC97E00197F1F700C000002998B1
:0E0B8E008FEC97E00197F1F700C0000008958A
:100B9C00CF93C82F807F8BB90E94BF05C295C07FB1
:0A0BAC00CBB90E94BF05CF91089558
:080BB600289A0E94CE05089563
:080BBE0028980E94CE0508955D
:040BC6000C9400008B
:100BCA00E50000E90000ED0000F10000F50000F981
:050BDA000000FD000019
:00000001FF
