:100000000C94B1000C94E8070C94E8070C94E807F2
:100010000C94E8070C94E8070C94E8070C94E807A4
:100020000C94E8070C94E8070C94E8070C94E80794
:100030000C94E8070C94E8070C94E8070C94E80784
:100040000C94E8070C94E8070C94E8070C94E80774
:100050000C94E8070C94E8070C94E8070C94E80764
:100060000C94E8070C94E80700407A10F35A00A0BB
:10007000724E18090010A5D4E80000E87648170071
:1000800000E40B54020000CA9A3B000000E1F505B1
:10009000000080969800000040420F000000A086FB
:1000A00001000000102700000000E803000000002D
:1000B0006400000000000A000000000001000000D1
:1000C00000002C76D888DC674F0823DFC1DFAE59EB
:1000D000E1B1B796E5E3E453C63AE651997696E87E
:1000E000E6C28426EB898C9B62ED407C6FFCEFBC02
:1000F0009C9F40F2BAA56FA5F490055A2AF75C932D
:100100006B6CF9676DC11BFCE0E40D47FEF520E662
:10011000B500D0ED902E0300943577050080841E45
:10012000080000204E0A000000C80C333333330FA0
:10013000986E12831141EF8D2114893BE65516CF3D
:10014000FEE6DB18D1844B381BF77C1D901DA4BB49
:10015000E424203284725E228100C9F124ECA1E5FE
:100160003D2711241FBECFEFD8E0DEBFCDBF0E94D8
:0A01700026050C94BB00F894FFCFA5
:10017A00252E32752F252E32752F252E3275002009
:10018A0020252E32753A252E327500430054454DEE
:05019A0050203A200096
:1001A0002F923F924F926F927F928F929F92AF9237
:1001B000BF92CF92DF92EF92FF920F931F93CF9354
:1001C000DF93CDB7DEB762970FB6F894DEBF0FBEF0
:1001D000CDBF6C013A01862E7901FC011086178291
:1001E000848181FFE7C19E012F5F3F4F3D872C87B0
:1001F000C901A0E8888B998BAA8B9FE3992EF30104
:10020000849187FC8081882309F4D0C1482D930113
:100210002F5F3F4F4F4F853219F03901842E0AC0AE
:10022000F901849147FD808192E0690E711C811C67
:10023000853229F4B60190E00E947F06E0CFB12C10
:1002400000E010E01032A0F48B3269F030F480321C
:1002500059F0833269F410612CC08D3239F080334B
:1002600039F4116026C01260146023C0186021C0E8
:1002700017FD29C090ED980F9A3078F416FF06C04C
:10028000AAE0BA9E900D1124B92E13C0EAE00E9F89
:10029000900D1124092F10620CC08E3221F416FD2E
:1002A00085C1106406C08C3611F4106802C088360F
:1002B00051F4F301849187FC8081FFEF6F1A7F0A6C
:1002C0008F0A8111BFCF982F9F7D9554933028F4CA
:1002D00024E0E20EF11C99820FC0833631F083379F
:1002E00091F0833509F063C027C0F70180818983CD
:1002F00097012E5F3F4F7901288839884A88AA24C0
:10030000A394B12C17C0A7014D5F5F4F5F874E8745
:10031000F70120803180428016FF03C04B2D50E052
:1003200002C04FEF5FEF842DB1010E947A075C019C
:10033000EE84FF841F7718C097012D5F3F4F3F87E2
:100340002E87F70120803180428016FF03C04B2D9D
:1003500050E002C04FEF5FEF842DB1010E947A0799
:100360005C011068EE84FF8413FD1DC0802F90E0B7
:10037000A816B906C0F4B60180E290E00E947F069C
:100380000150F4CFF101849147FC8081FFEF2F1AD7
:100390003F0A4F0AB60190E00E947F06011101500A
:1003A00021E0A21AB108A114B10461F7F5C08436A6
:1003B00011F0893671F5F70117FF08C0608171816E
:1003C0008281938197012C5F3F4F09C060817181C9
:1003D000072E000C880B990B97012E5F3F4F790178
:1003E0001F76312E97FF0AC0909580957095619584
:1003F0007F4F8F4F9F4F312F3068332E2AE030E0F0
:10040000AE014F5F5F4F0E94E405482E4C85441AB1
:100410004AC0853729F41F7EA12E2AE030E025C08E
:10042000512F597FA52E8F36C1F018F4883579F0F9
:10043000BDC0803719F0883721F0B8C0852F8061A2
:10044000A82EA4FE0DC09A2D9460A92E09C014FFF9
:100450000AC0A52FA660AA2E06C028E030E005C07D
:1004600020E130E002C020E132E0F701A7FE08C041
:100470006081718182819381A7014C5F5F4F07C0CA
:100480006081718180E090E0A7014E5F5F4F7A014B
:10049000AE014F5F5F4F0E94E405482E5C85451A10
:1004A0008A2D8F77382E36FE0DC0932D9E7FA92E74
:1004B0004B1458F434FE0BC032FC09C0A32DAE7EA1
:1004C000AA2E05C0142DA32C03C0142D01C01B2D72
:1004D000A4FE0EC0FE01E40DF11D8081803321F4E5
:1004E000EA2DE97EAE2E08C0A2FE05C01E5F04C044
:1004F0008A2D867809F01F5FA3FC11C0A0FE06C0FC
:10050000101788F4040DB02EB11A0EC0101760F445
:10051000B60180E290E00E947F061F5FF7CF1017C0
:1005200018F4011B02C0B42C00E0A4FE10C0B601F8
:1005300080E390E00E947F06A2FE17C0A1FC03C0EA
:1005400088E790E002C088E590E0B6010CC08A2DF3
:10055000867859F0A1FE02C08BE201C080E2A7FCC0
:100560008DE2B60190E00E947F064B1438F4B6018C
:1005700080E390E00E947F06BA94F7CF4A94E1E0CE
:10058000F0E0EC0FFD1FE40DF11D8081B60190E05D
:100590000E947F064110F2CF002309F430CEB6014D
:1005A00080E290E00E947F060150F6CFF60187813D
:1005B000908502C08FEF9FEF62960FB6F894DEBF72
:1005C0000FBECDBFDF91CF911F910F91FF90EF90A4
:1005D000DF90CF90BF90AF909F908F907F906F9063
:0805E0004F903F902F90089509
:1005E800A9E0B0E0EAEFF2E00C9464076A01122F88
:1005F800B02E2BE3201720F0FF24F394F00E02C056
:100608002CE3F22E0F2D27E0AE014F5F5F4F0E94C3
:100618004E04BC014981842F8970813031F0E1FC9E
:1006280006C0E0FE06C090E205C09DE203C09BE262
:1006380001C090E05E2D507143FF3CC0911102C093
:1006480083E001C084E0811718F4212F281B01C022
:1006580020E051110BC0F601822F30E2882319F0F7
:1006680031938150FBCFC20ED11C20E0992329F091
:10067800D6019C93F60131966F01C6010396E2FEFE
:100688000AC03EE4D6013C9341E411964C9311977D
:1006980012963C9306C03EE6F601308341E641835C
:1006A8003283FC01322F40E2332309F442C04193E4
:1006B8003150FACF42FF44C0911102C083E001C01B
:1006C80084E0811718F4212F281B01C020E0511164
:1006D8000BC0F601822F30E2882319F03193815044
:1006E800FBCFC20ED11C20E0992329F0D6019C93A0
:1006F800F60131966F01C6010396E2FE0BC039E49C
:10070800D6013C933EE411963C93119736E4129639
:100718003C9307C039E6F60130833EE6318336E67E
:100728003283FC01322F40E2332319F041933150D8
:10073800FBCFFC01E20FF11D10828EEF9FEFA6C0E8
:1007480021E030E0911102C020E030E016161706D3
:100758001CF4FB01319602C0E1E0F0E02E0F3F1FD0
:10076800BB2021F0EB2DF0E0319602C0E0E0F0E094
:100778002E0F3F1FE12FF0E02E173F071CF4121B2E
:10078800212F01C020E08E2D887159F4F601822FA7
:1007980030E2882319F031938150FBCFC20ED11C6F
:1007A80020E0992329F0D6019C93F60131966F0138
:1007B80051110BC0F601822F90E3882319F0919311
:1007C8008150FBCFC20ED11C20E00F2D060F9A815D
:1007D800342F307144FF03C0913309F401501016CF
:1007E80024F4093018F008E001C001E0AB0177FFFC
:1007F80002C040E050E0FB01E41BF50BA1E0B0E0D3
:10080800AC0FBD1FEA0FFB1F8EE2A82E4B01801A0A
:1008180091080B2D10E01195019511094F3FBFEF7D
:100828005B0721F4D601AC9211966D016417750728
:100838002CF08416950614F4818101C080E34150A0
:1008480051093196D60111967D014017510724F0C0
:10085800D6018C936701E2CF6417750739F4963394
:1008680020F4953319F4311101C081E3F601808336
:10087800F701822F90E2882319F091938150FBCFE2
:10088800F701E20FF11D108280E090E02996ECE07C
:040898000C949B071A
:10089C00283008F027E03327DA01990F311D87FD46
:1008AC00916000966105710539F432602E5F3D93BD
:1008BC0030E32A95E1F708959F3F30F080387105B9
:1008CC00610509F03C5F3C5F3D93913008F0806816
:1008DC00911DDF93CF931F930F93FF92EF92192FDC
:1008EC00987F9695E92F96959695E90FFF27EE53ED
:1008FC00FF4F99273327EE24FF24A701E70105902A
:10090C000894079428F4360FE71EF81E491F511D52
:10091C00660F771F881F991F0694A1F705900794FF
:10092C0028F4E70EF81E491F561FC11D770F881FAC
:10093C00991F661F0694A1F70590079428F4F80EEA
:10094C00491F561FC71FD11D880F991F661F771F80
:10095C000694A1F70590079420F4490F561FC71F62
:10096C00D81F990F661F771F881F0694A9F78491CB
:10097C001095177041F0D695C79557954795F794F4
:10098C00E7941A95C1F7E8E6F0E068941590159194
:10099C0035916591959105907FE27395E118F10A77
:1009AC00430B560BC90BD009C0F7E10CF11E431FCA
:1009BC00561FC91FD01D7EF4703311F48A95E6CFF3
:1009CC00E894015030F0080F0AF40027021708F4DD
:1009DC00202F2395022F7A3328F079E37D932A95E3
:1009EC00E9F710C07D932A9589F60694979567953B
:1009FC00379517951794E118F10A430B560BC90B51
:100A0C00D00998F023957E9173957A3308F070E3B2
:100A1C007C932013B8F77E9170617D9330F08395B1
:100A2C0071E37D9370E32A95E1F71124EF90FF9029
:100A3C000F911F91CF91DF91992787FD9095089584
:100A4C00CF93DF93CDB7DEB7EE970FB6F894DEBF3A
:100A5C000FBECDBF0E94DE060E94D90727E931E008
:100A6C0040E088E0F901DE011196742F0E94CC075A
:100A7C000F2EFAE76F2EF1E07F2EF0E08F2EF02D87
:100A8C005E0123E2A20EB11C0F2EF9E8CF2EF1E08D
:100A9C00DF2EF0E0EF2EF02D2E0133E1430E511C32
:100AAC0085E991E0A0E09C014A2F50E02BAF3CAFD0
:100ABC004DAF5EAFCE01C3960E9420070E943F0748
:100ACC00880F892F881F990B9195BC0180E090E0CD
:100ADC000E9442068E01075F1F4F22E043E00E94F6
:100AEC00000789AD1F928F938FA91F928F938EA9A8
:100AFC001F928F938F927F926F92BF92AF920E94B0
:100B0C00BB0680E80E94E0078BA10FB6F894DEBF0D
:100B1C000FBECDBF882349F0055E1F4F0E94E4072E
:100B2C00F80181918F018111F9CF8CA91F928F93BC
:100B3C008DA91F928F93EF92DF92CF925F924F927B
:100B4C000E94BB068B890FB6F894DEBF0FBECDBFDB
:100B5C00882351F08E010C5E1F4F0E94E407F801B0
:100B6C0081918F018111F9CF80EC0E94E00789817E
:100B7C00882351F08E010E5F1F4F0E94E407F8018D
:100B8C0081918F018111F9CF8985882351F08E01D4
:100B9C00065F1F4F0E94E407F80181918F018111BC
:100BAC00F9CF8BAD0E94E407FFEF20E732E0F15064
:0C0BBC0020403040E1F700C000007CCF7A
:100BC800FA01AA27283051F1203181F1E8946F9376
:100BD8006E7F6E5F7F4F8F4F9F4FAF4FB1E03ED01C
:100BE800B4E03CD0670F781F891F9A1FA11D680FBA
:100BF800791F8A1F911DA11D6A0F711D811D911DED
:100C0800A11D20D009F468943F912AE0269F112461
:100C18003019305D3193DEF6CF010895462F4770C5
:100C2800405D4193B3E00FD0C9F7F6CF462F4F7020
:100C3800405D4A3318F0495D31FD4052419302D07E
:100C4800A9F7EACFB4E0A695979587957795679524
:100C5800BA95C9F700976105710508959B01AC0124
:100C68000A2E06945795479537952795BA95C9F74B
:0C0C7800620F731F841F951FA01D0895BC
:100C8400E89409C097FB3EF4909580957095619522
:100C94007F4F8F4F9F4F9923A9F0F92F96E9BB27D8
:100CA4009395F695879577956795B795F111F8CF54
:100CB400FAF4BB0F11F460FF1BC06F5F7F4F8F4FBF
:100CC4009F4F16C0882311F096E911C0772321F0B5
:100CD4009EE8872F762F05C0662371F096E8862F4D
:100CE40070E060E02AF09A95660F771F881FDAF7A4
:0A0CF400880F9695879597F90895EB
:100CFE000F931F93CF93DF93FB01248121FD03C03C
:100D0E008FEF9FEF2CC022FF16C0478150852581A3
:100D1E0036814217530744F4A081B1819D012F5FA4
:100D2E003F4F318320838C93278130852F5F3F4F38
:100D3E003087278314C08B01EC01FB010184F285FF
:100D4E00E02D0995892BE1F6D80117968D919C918E
:100D5E001897019618969C938E931797CE01DF9154
:080D6E00CF911F910F91089530
:100D7600AFE0B0E0E1ECF6E00C946C070E891F8959
:100D860086E08D831A8309838FEF9FE79F838E8387
:100D96009E01255E3F4F488D598D6A8DCE01019685
:100DA6000E94D000E885F985E00FF11F10822F968A
:060DB600E4E00C94A30729
:100DBC0084B1836484B980EF8AB985B18C7B85B9A1
:100DCC001BB883E00E94E00782E00E94E00788E203
:100DDC000E94E0078CE00E94E00781E00E94E0079F
:100DEC0080E80E94E0078FEC97E00197F1F700C0D4
:040DFC000000089556
:100E0000EF920F931F93CF93DF93E80147FD02C04A
:100E100034E001C034E1042E000C550B57FF03C031
:100E2000519541955109E32E022F242FAE010E94C6
:100E3000F402CE01DF91CF911F910F91EF900895B1
:100E40002A982FEB2EBD0DB407FEFDCFFC01AC019F
:100E5000485F5F4F1EBC0DB407FEFDCF9EB5292F26
:100E600022952F70220F322F330F330F230F9F70D5
:0E0E7000920F91934E175F0769F72A9A089523
:100E7E002A988FEF8EBD0DB407FEFDCF8EB590E094
:100E8E002FEF2EBD0DB407FEFDCF2EB52A9A982F4B
:100E9E008827822B880F991F880F991F880F991FFB
:0E0EAE00929582958F7089279F7089270895ED
:100EBC002F923F924F925F926F927F928F929F925E
:100ECC00AF92BF92CF92DF92EF92FF920F931F934C
:100EDC00CF93DF93CDB7DEB7CA1BDB0B0FB6F894FD
:080EEC00DEBF0FBECDBF09946B
:100EF400CF92DF92EF926B01E82EA82FCB01411520
:100F0400510531F48C199D09EF90DF90CF9008952D
:100F1400FC012491A7FD20812223A1F30196A11DA8
:060F240041505109ECCF21
:100F2A002A88398848885F846E847D848C849B846F
:100F3A00AA84B984C884DF80EE80FD800C811B817D
:100F4A00AA81B981CE0FD11D0FB6F894DEBF0FBEAC
:060F5A00CDBFED0108957A
:100F6000299A8FEC97E00197F1F700C000002998CB
:0E0F70008FEC97E00197F1F700C000000895A4
:100F7E00CF93C82F807F8BB90E94B007C295C07FD8
:0A0F8E00CBB90E94B007CF9108957F
:100F9800992777FD05C005900D920197E1F708950F
:0A0FA80001900D920197E1F7089502
:0E0FB20084B18C6284B98CB582658CBD0895C3
:080FC00028980E94BF07089564
:080FC800289A0E94BF0708955A
:040FD0000C9400007D
:00000001FF
