:100000000C94B1000C9466040C9466040C94660481
:100010000C9466040C9466040C9466040C946604B8
:100020000C9466040C9466040C9466040C946604A8
:100030000C9466040C9466040C9466040C94660498
:100040000C9466040C9466040C9466040C94660488
:100050000C9466040C9466040C9466040C94660478
:100060000C9466040C94660400407A10F35A00A0C5
:10007000724E18090010A5D4E80000E87648170071
:1000800000E40B54020000CA9A3B000000E1F505B1
:10009000000080969800000040420F000000A086FB
:1000A00001000000102700000000E803000000002D
:1000B0006400000000000A000000000001000000D1
:1000C00000002C76D888DC674F0823DFC1DFAE59EB
:1000D000E1B1B796E5E3E453C63AE651997696E87E
:1000E000E6C28426EB898C9B62ED407C6FFCEFBC02
:1000F0009C9F40F2BAA56FA5F490055A2AF75C932D
:100100006B6CF9676DC11BFCE0E40D47FEF520E662
:10011000B500D0ED902E0300943577050080841E45
:10012000080000204E0A000000C80C333333330FA0
:10013000986E12831141EF8D2114893BE65516CF3D
:10014000FEE6DB18D1844B381BF77C1D901DA4BB49
:10015000E424203284725E228100C9F124ECA1E5FE
:100160003D2711241FBECFEFD8E0DEBFCDBF0E94D8
:0A017000F9020C94BB00F894FFCFD5
:10017A00202E430054656D70657261747572652036
:03018A003D200015
:10018E00A9E0B0E0EDECF0E00C94D9036A01122F77
:10019E00B02E2BE3201720F0FF24F394F00E02C0B4
:1001AE002CE3F22E0F2D27E0AE014F5F5F4F0E9422
:1001BE002102BC014981842F8970813031F0E1FC2C
:1001CE0006C0E0FE06C090E205C09DE203C09BE2C1
:1001DE0001C090E05E2D507143FF3CC0911102C0F2
:1001EE0083E001C084E0811718F4212F281B01C081
:1001FE0020E051110BC0F601822F30E2882319F056
:10020E0031938150FBCFC20ED11C20E0992329F0EF
:10021E00D6019C93F60131966F01C6010396E2FE5C
:10022E000AC03EE4D6013C9341E411964C931197DB
:10023E0012963C9306C03EE6F601308341E64183BA
:10024E003283FC01322F40E2332309F442C0419342
:10025E003150FACF42FF44C0911102C083E001C079
:10026E0084E0811718F4212F281B01C020E05111C2
:10027E000BC0F601822F30E2882319F031938150A2
:10028E00FBCFC20ED11C20E0992329F0D6019C93FE
:10029E00F60131966F01C6010396E2FE0BC039E4FA
:1002AE00D6013C933EE411963C93119736E4129698
:1002BE003C9307C039E6F60130833EE6318336E6DD
:1002CE003283FC01322F40E2332319F04193315037
:1002DE00FBCFFC01E20FF11D10828EEF9FEFA6C047
:1002EE0021E030E0911102C020E030E01616170632
:1002FE001CF4FB01319602C0E1E0F0E02E0F3F1F2F
:10030E00BB2021F0EB2DF0E0319602C0E0E0F0E0F2
:10031E002E0F3F1FE12FF0E02E173F071CF4121B8C
:10032E00212F01C020E08E2D887159F4F601822F05
:10033E0030E2882319F031938150FBCFC20ED11CCD
:10034E0020E0992329F0D6019C93F60131966F0196
:10035E0051110BC0F601822F90E3882319F091936F
:10036E008150FBCFC20ED11C20E00F2D060F9A81BB
:10037E00342F307144FF03C0913309F4015010162D
:10038E0024F4093018F008E001C001E0AB0177FF5A
:10039E0002C040E050E0FB01E41BF50BA1E0B0E031
:1003AE00AC0FBD1FEA0FFB1F8EE2A82E4B01801A69
:1003BE0091080B2D10E01195019511094F3FBFEFDC
:1003CE005B0721F4D601AC9211966D016417750787
:1003DE002CF08416950614F4818101C080E34150FF
:1003EE0051093196D60111967D014017510724F01F
:1003FE00D6018C936701E2CF6417750739F49633F3
:10040E0020F4953319F4311101C081E3F601808394
:10041E00F701822F90E2882319F091938150FBCF40
:10042E00F701E20FF11D108280E090E02996ECE0DA
:04043E000C94F50322
:10044200283008F027E03327DA01990F311D87FDA4
:10045200916000966105710539F432602E5F3D931B
:1004620030E32A95E1F708959F3F30F08038710517
:10047200610509F03C5F3C5F3D93913008F0806874
:10048200911DDF93CF931F930F93FF92EF92192F3A
:10049200987F9695E92F96959695E90FFF27EE534B
:1004A200FF4F99273327EE24FF24A701E701059088
:1004B2000894079428F4360FE71EF81E491F511DB1
:1004C200660F771F881F991F0694A1F7059007945E
:1004D20028F4E70EF81E491F561FC11D770F881F0B
:1004E200991F661F0694A1F70590079428F4F80E49
:1004F200491F561FC71FD11D880F991F661F771FDF
:100502000694A1F70590079420F4490F561FC71FC0
:10051200D81F990F661F771F881F0694A9F7849129
:100522001095177041F0D695C79557954795F79452
:10053200E7941A95C1F7E8E6F0E0689415901591F2
:1005420035916591959105907FE27395E118F10AD5
:10055200430B560BC90BD009C0F7E10CF11E431F28
:10056200561FC91FD01D7EF4703311F48A95E6CF51
:10057200E894015030F0080F0AF40027021708F43B
:10058200202F2395022F7A3328F079E37D932A9541
:10059200E9F710C07D932A9589F606949795679599
:1005A200379517951794E118F10A430B560BC90BAF
:1005B200D00998F023957E9173957A3308F070E311
:1005C2007C932013B8F77E9170617D9330F0839510
:1005D20071E37D9370E32A95E1F71124EF90FF9088
:1005E2000F911F91CF91DF91992787FD90950895E3
:1005F200CF93DF93CDB7DEB769970FB6F894DEBF1E
:100602000FBECDBF0E94230483E390E00E94330417
:100612002EE731E040E08FE0F901DE011196742F00
:100622000E9451040F2EFAE7EF2EF12CF02D0F2E1F
:10063200F8E7AF2EB12CF02D6E0120E1C20ED11CD5
:10064200F701808180648083F701808184FFFCCF81
:10065200F50120813181F701808180618083ADECD9
:10066200BCEC0E9442049695879596958795BC01AD
:1006720080E090E00E947603860122E043E00E943F
:10068200B303F60101900020E9F7CF0124E030E046
:100692004AE751E060E001970E940A0489818823B9
:1006A20051F08E010E5F1F4F0E945E04F80181918E
:1006B2008F018111F9CF8889882351F08E010F5E55
:1006C2001F4F0E945E04F80181918F018111F9CFC1
:1006D2008AE00E945E04FFEF29E688E1F1502040A3
:0A06E2008040E1F700C00000ABCF3C
:1006EC00E89409C097FB3EF49095809570956195C0
:1006FC007F4F8F4F9F4F9923A9F0F92F96E9BB2776
:10070C009395F695879577956795B795F111F8CFF1
:10071C00FAF4BB0F11F460FF1BC06F5F7F4F8F4F5C
:10072C009F4F16C0882311F096E911C0772321F052
:10073C009EE8872F762F05C0662371F096E8862FEA
:10074C0070E060E02AF09A95660F771F881FDAF741
:0A075C00880F9695879597F9089588
:10076600EF920F931F93CF93DF93E80147FD02C0EB
:1007760034E001C034E1042E000C550B57FF03C0D2
:10078600519541955109E32E022F242FAE010E9467
:10079600C700CE01DF91CF911F910F91EF90089581
:1007A6002F923F924F925F926F927F928F929F927B
:1007B600AF92BF92CF92DF92EF92FF920F931F9369
:1007C600CF93DF93CDB7DEB7CA1BDB0B0FB6F8941A
:0807D600DEBF0FBECDBF099488
:1007DE002A88398848885F846E847D848C849B84C3
:1007EE00AA84B984C884DF80EE80FD800C811B81D1
:1007FE00AA81B981CE0FD11D0FB6F894DEBF0FBE00
:06080E00CDBFED010895CD
:10081400CF92DF92EF92DC016A01E62E280F391F96
:10082400A217B30751F0F6014491E7FC40814D93C0
:100834004FEFC41AD40AE40AF3CFEF90DF90CF90BD
:02084400089515
:10084600ECE7F0E0808185648083EAE7F0E0808170
:1008560086688083EEE7F0E0808180628083089579
:100866009093C5008093C400E1ECF0E0808188613C
:0E0876008083E2ECF0E080818660808308954C
:10088400A29FB001B39FC001A39F700D811D1124CD
:0E089400911DB29F700D811D1124911D0895BC
:1008A200992777FD05C005900D920197E1F708950C
:0A08B20001900D920197E1F70895FF
:1008BC00E0ECF0E0908195FFFDCF8093C6000895A9
:0408CC000C94000088
:00000001FF
