:100000000C94B1000C9408060C9408060C94080695
:100010000C9408060C9408060C9408060C94080628
:100020000C9408060C9408060C9408060C94080618
:100030000C9408060C9408060C9408060C94080608
:100040000C9408060C9408060C9408060C940806F8
:100050000C9408060C9408060C9408060C940806E8
:100060000C9408060C94080600407A10F35A00A07D
:10007000724E18090010A5D4E80000E87648170071
:1000800000E40B54020000CA9A3B000000E1F505B1
:10009000000080969800000040420F000000A086FB
:1000A00001000000102700000000E803000000002D
:1000B0006400000000000A000000000001000000D1
:1000C00000002C76D888DC674F0823DFC1DFAE59EB
:1000D000E1B1B796E5E3E453C63AE651997696E87E
:1000E000E6C28426EB898C9B62ED407C6FFCEFBC02
:1000F0009C9F40F2BAA56FA5F490055A2AF75C932D
:100100006B6CF9676DC11BFCE0E40D47FEF520E662
:10011000B500D0ED902E0300943577050080841E45
:10012000080000204E0A000000C80C333333330FA0
:10013000986E12831141EF8D2114893BE65516CF3D
:10014000FEE6DB18D1844B381BF77C1D901DA4BB49
:10015000E424203284725E228100C9F124ECA1E5FE
:100160003D2711241FBECFEFD8E0DEBFCDBF0E94D8
:0A017000F9020C94BB00F894FFCFD5
:10017A00202E430054656D70657261747572652036
:03018A003D200015
:10018E00A9E0B0E0EDECF0E00C9453056A01122FFB
:10019E00B02E2BE3201720F0FF24F394F00E02C0B4
:1001AE002CE3F22E0F2D27E0AE014F5F5F4F0E9422
:1001BE002102BC014981842F8970813031F0E1FC2C
:1001CE0006C0E0FE06C090E205C09DE203C09BE2C1
:1001DE0001C090E05E2D507143FF3CC0911102C0F2
:1001EE0083E001C084E0811718F4212F281B01C081
:1001FE0020E051110BC0F601822F30E2882319F056
:10020E0031938150FBCFC20ED11C20E0992329F0EF
:10021E00D6019C93F60131966F01C6010396E2FE5C
:10022E000AC03EE4D6013C9341E411964C931197DB
:10023E0012963C9306C03EE6F601308341E64183BA
:10024E003283FC01322F40E2332309F442C0419342
:10025E003150FACF42FF44C0911102C083E001C079
:10026E0084E0811718F4212F281B01C020E05111C2
:10027E000BC0F601822F30E2882319F031938150A2
:10028E00FBCFC20ED11C20E0992329F0D6019C93FE
:10029E00F60131966F01C6010396E2FE0BC039E4FA
:1002AE00D6013C933EE411963C93119736E4129698
:1002BE003C9307C039E6F60130833EE6318336E6DD
:1002CE003283FC01322F40E2332319F04193315037
:1002DE00FBCFFC01E20FF11D10828EEF9FEFA6C047
:1002EE0021E030E0911102C020E030E01616170632
:1002FE001CF4FB01319602C0E1E0F0E02E0F3F1F2F
:10030E00BB2021F0EB2DF0E0319602C0E0E0F0E0F2
:10031E002E0F3F1FE12FF0E02E173F071CF4121B8C
:10032E00212F01C020E08E2D887159F4F601822F05
:10033E0030E2882319F031938150FBCFC20ED11CCD
:10034E0020E0992329F0D6019C93F60131966F0196
:10035E0051110BC0F601822F90E3882319F091936F
:10036E008150FBCFC20ED11C20E00F2D060F9A81BB
:10037E00342F307144FF03C0913309F4015010162D
:10038E0024F4093018F008E001C001E0AB0177FF5A
:10039E0002C040E050E0FB01E41BF50BA1E0B0E031
:1003AE00AC0FBD1FEA0FFB1F8EE2A82E4B01801A69
:1003BE0091080B2D10E01195019511094F3FBFEFDC
:1003CE005B0721F4D601AC9211966D016417750787
:1003DE002CF08416950614F4818101C080E34150FF
:1003EE0051093196D60111967D014017510724F01F
:1003FE00D6018C936701E2CF6417750739F49633F3
:10040E0020F4953319F4311101C081E3F601808394
:10041E00F701822F90E2882319F091938150FBCF40
:10042E00F701E20FF11D108280E090E02996ECE0DA
:04043E000C946F05A6
:10044200283008F027E03327DA01990F311D87FDA4
:10045200916000966105710539F432602E5F3D931B
:1004620030E32A95E1F708959F3F30F08038710517
:10047200610509F03C5F3C5F3D93913008F0806874
:10048200911DDF93CF931F930F93FF92EF92192F3A
:10049200987F9695E92F96959695E90FFF27EE534B
:1004A200FF4F99273327EE24FF24A701E701059088
:1004B2000894079428F4360FE71EF81E491F511DB1
:1004C200660F771F881F991F0694A1F7059007945E
:1004D20028F4E70EF81E491F561FC11D770F881F0B
:1004E200991F661F0694A1F70590079428F4F80E49
:1004F200491F561FC71FD11D880F991F661F771FDF
:100502000694A1F70590079420F4490F561FC71FC0
:10051200D81F990F661F771F881F0694A9F7849129
:100522001095177041F0D695C79557954795F79452
:10053200E7941A95C1F7E8E6F0E0689415901591F2
:1005420035916591959105907FE27395E118F10AD5
:10055200430B560BC90BD009C0F7E10CF11E431F28
:10056200561FC91FD01D7EF4703311F48A95E6CF51
:10057200E894015030F0080F0AF40027021708F43B
:10058200202F2395022F7A3328F079E37D932A9541
:10059200E9F710C07D932A9589F606949795679599
:1005A200379517951794E118F10A430B560BC90BAF
:1005B200D00998F023957E9173957A3308F070E311
:1005C2007C932013B8F77E9170617D9330F0839510
:1005D20071E37D9370E32A95E1F71124EF90FF9088
:1005E2000F911F91CF91DF91992787FD90950895E3
:1005F200CF93DF93CDB7DEB769970FB6F894DEBF1E
:100602000FBECDBF83E390E00E94AE050E94CA05F3
:100612002EE731E040E08FE0F901DE011196742F00
:100622000E94BD057E0120E1E20EF11C0E942E0512
:10063200BC0180E090E00E94AF0420E030EF4FE781
:1006420055E40E94FD0520E030E040EA50E40E94BB
:10065200010620E030E040E05FE30E94DB0520E09D
:1006620030E048EC52E40E940106870122E043E0B8
:100672000E940E05F70101900020E9F7CF0124E066
:1006820030E04AE751E060E001970E9484058981E9
:10069200882351F08E010E5F1F4F0E94D305F8018F
:1006A20081918F018111F9CF8889882351F08E01C0
:1006B2000F5E1F4F0E94D305F80181918F018111B6
:1006C200F9CF8AE00E94D305FFEF29E688E1F150D5
:0C06D20020408040E1F700C00000A8CFED
:1006DE0010C00E94E90558F00E94E20540F029F48E
:1006EE005F3F29F00C94F70551110C94F1050C9411
:1006FE0005060E94EC0468F39923B1F3552391F398
:10070E00951B550BBB27AA2762177307840738F072
:10071E009F5F5F4F220F331F441FAA1FA9F335D0CF
:10072E000E2E3AF0E0E832D091505040E695001C83
:10073E00CAF72BD0FE2F29D0660F771F881FBB1F3D
:10074E00261737074807AB07B0E809F0BB0B802D1B
:10075E00BF01FF2793585F4F3AF09E3F510578F047
:10076E000C94F7050C94F1055F3FE4F3983ED4F337
:10077E00869577956795B795F7959F5FC9F7880F1B
:10078E00911D9695879597F90895E1E0660F771F6D
:10079E00881FBB1F621773078407BA0720F0621BFE
:0E07AE00730B840BBA0BEE1F88F7E0950895CD
:1007BC000FC00E94E20538F00E94E90520F0952355
:1007CC0011F00C94F7050C94050611240C94F1050A
:1007DC000E94EC0470F3959FC1F3950F50E0551FE8
:1007EC00629FF001729FBB27F00DB11D639FAA277A
:1007FC00F00DB11DAA1F649F6627B00DA11D661FC9
:10080C00829F2227B00DA11D621F739FB00DA11DE9
:10081C00621F839FA00D611D221F749F3327A00DA3
:10082C00611D231F849F600D211D822F762F6A2F3F
:10083C0011249F5750409AF0F1F088234AF0EE0FA4
:10084C00FF1FBB1F661F771F881F91505040A9F7D1
:10085C009E3F510580F00C94F7050C94F1055F3F19
:10086C00E4F3983ED4F3869577956795B795F7950D
:10087C00E7959F5FC1F7FE2B880F911D9695879585
:04088C0097F908953B
:1008900011C00E94E20538F00E94E90520F039F409
:1008A0009F3F19F426F40C9405060EF4E095E7FB3F
:1008B0000C94F705E92F0E94EC0458F3BA1762076D
:1008C00073078407950720F079F4A6F50C94F005DA
:1008D0000EF4E0950B2EBA2FA02D0B01B90190015B
:1008E0000C01CA01A0011124FF27591B99F0593F9F
:1008F00050F4503E68F11A16F040A22F232F342FE7
:100900004427585FF3CF469537952795A795F04034
:100910005395C9F77EF41F16BA0B620B730B840B49
:10092000BAF09150A1F0FF0FBB1F661F771F881F01
:10093000C2F70EC0BA0F621F731F841F48F4879559
:1009400077956795B795F7959E3F08F0B0CF93954B
:0E095000880F08F09927EE0F97958795089568
:10095E00E89409C097FB3EF490958095709561954B
:10096E007F4F8F4F9F4F9923A9F0F92F96E9BB2701
:10097E009395F695879577956795B795F111F8CF7D
:10098E00FAF4BB0F11F460FF1BC06F5F7F4F8F4FE8
:10099E009F4F16C0882311F096E911C0772321F0DE
:1009AE009EE8872F762F05C0662371F096E8862F76
:1009BE0070E060E02AF09A95660F771F881FDAF7CD
:0A09CE00880F9695879597F9089514
:1009D80057FD9058440F551F59F05F3F71F04795E8
:1009E800880F97FB991F61F09F3F79F087950895CD
:1009F800121613061406551FF2CF4695F1DF08C0EC
:100A0800161617061806991FF1CF86957105610508
:040A180008940895A1
:100A1C00EF920F931F93CF93DF93E80147FD02C032
:100A2C0034E001C034E1042E000C550B57FF03C019
:100A3C00519541955109E32E022F242FAE010E94AE
:100A4C00C700CE01DF91CF911F910F91EF900895C8
:100A5C002A988FEF8EBD0DB407FEFDCF8EB590E0BA
:100A6C002FEF2EBD0DB407FEFDCF2EB52A9A982F71
:100A7C008827822B880F991F880F991F880F991F21
:0E0A8C00929582958F7089279F708927089513
:100A9A002F923F924F925F926F927F928F929F9284
:100AAA00AF92BF92CF92DF92EF92FF920F931F9372
:100ABA00CF93DF93CDB7DEB7CA1BDB0B0FB6F89423
:080ACA00DEBF0FBECDBF099491
:100AD2002A88398848885F846E847D848C849B84CC
:100AE200AA84B984C884DF80EE80FD800C811B81DA
:100AF200AA81B981CE0FD11D0FB6F894DEBF0FBE09
:060B0200CDBFED010895D6
:100B0800CF92DF92EF92DC016A01E62E280F391F9F
:100B1800A217B30751F0F6014491E7FC40814D93C9
:100B28004FEFC41AD40AE40AF3CFEF90DF90CF90C6
:020B380008951E
:100B3A00092E0394000C11F4882352F0BB0F40F4E1
:100B4A00BF2B11F460FF04C06F5F7F4F8F4F9F4F21
:020B5A000895FC
:100B5C009093C5008093C400E1ECF0E08081886143
:0E0B6C008083E2ECF0E0808186608083089553
:100B7A00992777FD05C005900D920197E1F7089531
:0A0B8A0001900D920197E1F7089524
:100B940084B18C6284B92A9A2A988CB581658CBDFB
:020BA4000895B2
:100BA600E0ECF0E0908195FFFDCF8093C6000895BC
:0E0BB6005058BB27AA270E9448040C949D05A6
:0E0BC40000240A94161617061806090608954E
:0E0BD20000240A941216130614060506089550
:0E0BE000E894BB2766277727CB0197F9089585
:0C0BEE0097F99F6780E870E060E00895D0
:080BFA000E946F030C949D059D
:080C02000E94DE030C949D0525
:060C0A009FEF80EC08954D
:040C10000C94000040
:00000001FF
